{
  "_format": "hh3-artifact-1",
  "contractName": "CipherVault",
  "sourceName": "contracts/CipherVault.sol",
  "abi": [
    {
      "inputs": [],
      "stateMutability": "nonpayable",
      "type": "constructor"
    },
    {
      "inputs": [
        {
          "internalType": "address",
          "name": "sender",
          "type": "address"
        },
        {
          "internalType": "uint256",
          "name": "tokenId",
          "type": "uint256"
        },
        {
          "internalType": "address",
          "name": "owner",
          "type": "address"
        }
      ],
      "name": "ERC721IncorrectOwner",
      "type": "error"
    },
    {
      "inputs": [
        {
          "internalType": "address",
          "name": "operator",
          "type": "address"
        },
        {
          "internalType": "uint256",
          "name": "tokenId",
          "type": "uint256"
        }
      ],
      "name": "ERC721InsufficientApproval",
      "type": "error"
    },
    {
      "inputs": [
        {
          "internalType": "address",
          "name": "approver",
          "type": "address"
        }
      ],
      "name": "ERC721InvalidApprover",
      "type": "error"
    },
    {
      "inputs": [
        {
          "internalType": "address",
          "name": "operator",
          "type": "address"
        }
      ],
      "name": "ERC721InvalidOperator",
      "type": "error"
    },
    {
      "inputs": [
        {
          "internalType": "address",
          "name": "owner",
          "type": "address"
        }
      ],
      "name": "ERC721InvalidOwner",
      "type": "error"
    },
    {
      "inputs": [
        {
          "internalType": "address",
          "name": "receiver",
          "type": "address"
        }
      ],
      "name": "ERC721InvalidReceiver",
      "type": "error"
    },
    {
      "inputs": [
        {
          "internalType": "address",
          "name": "sender",
          "type": "address"
        }
      ],
      "name": "ERC721InvalidSender",
      "type": "error"
    },
    {
      "inputs": [
        {
          "internalType": "uint256",
          "name": "tokenId",
          "type": "uint256"
        }
      ],
      "name": "ERC721NonexistentToken",
      "type": "error"
    },
    {
      "inputs": [
        {
          "internalType": "address",
          "name": "owner",
          "type": "address"
        }
      ],
      "name": "OwnableInvalidOwner",
      "type": "error"
    },
    {
      "inputs": [
        {
          "internalType": "address",
          "name": "account",
          "type": "address"
        }
      ],
      "name": "OwnableUnauthorizedAccount",
      "type": "error"
    },
    {
      "anonymous": false,
      "inputs": [
        {
          "indexed": true,
          "internalType": "address",
          "name": "owner",
          "type": "address"
        },
        {
          "indexed": true,
          "internalType": "address",
          "name": "approved",
          "type": "address"
        },
        {
          "indexed": true,
          "internalType": "uint256",
          "name": "tokenId",
          "type": "uint256"
        }
      ],
      "name": "Approval",
      "type": "event"
    },
    {
      "anonymous": false,
      "inputs": [
        {
          "indexed": true,
          "internalType": "address",
          "name": "owner",
          "type": "address"
        },
        {
          "indexed": true,
          "internalType": "address",
          "name": "operator",
          "type": "address"
        },
        {
          "indexed": false,
          "internalType": "bool",
          "name": "approved",
          "type": "bool"
        }
      ],
      "name": "ApprovalForAll",
      "type": "event"
    },
    {
      "anonymous": false,
      "inputs": [
        {
          "indexed": true,
          "internalType": "uint256",
          "name": "tokenId",
          "type": "uint256"
        }
      ],
      "name": "AssetBurned",
      "type": "event"
    },
    {
      "anonymous": false,
      "inputs": [
        {
          "indexed": true,
          "internalType": "uint256",
          "name": "tokenId",
          "type": "uint256"
        },
        {
          "indexed": false,
          "internalType": "uint256",
          "name": "price",
          "type": "uint256"
        }
      ],
      "name": "AssetListed",
      "type": "event"
    },
    {
      "anonymous": false,
      "inputs": [
        {
          "indexed": true,
          "internalType": "uint256",
          "name": "tokenId",
          "type": "uint256"
        },
        {
          "indexed": false,
          "internalType": "address",
          "name": "buyer",
          "type": "address"
        },
        {
          "indexed": false,
          "internalType": "uint256",
          "name": "price",
          "type": "uint256"
        }
      ],
      "name": "AssetSold",
      "type": "event"
    },
    {
      "anonymous": false,
      "inputs": [
        {
          "indexed": true,
          "internalType": "uint256",
          "name": "tokenId",
          "type": "uint256"
        },
        {
          "indexed": false,
          "internalType": "address",
          "name": "from",
          "type": "address"
        },
        {
          "indexed": false,
          "internalType": "address",
          "name": "to",
          "type": "address"
        }
      ],
      "name": "AssetTransferred",
      "type": "event"
    },
    {
      "anonymous": false,
      "inputs": [
        {
          "indexed": false,
          "internalType": "uint256",
          "name": "_fromTokenId",
          "type": "uint256"
        },
        {
          "indexed": false,
          "internalType": "uint256",
          "name": "_toTokenId",
          "type": "uint256"
        }
      ],
      "name": "BatchMetadataUpdate",
      "type": "event"
    },
    {
      "anonymous": false,
      "inputs": [
        {
          "indexed": true,
          "internalType": "uint256",
          "name": "tokenId",
          "type": "uint256"
        },
        {
          "indexed": false,
          "internalType": "string",
          "name": "status",
          "type": "string"
        }
      ],
      "name": "EscrowUpdate",
      "type": "event"
    },
    {
      "anonymous": false,
      "inputs": [
        {
          "indexed": true,
          "internalType": "uint256",
          "name": "tokenId",
          "type": "uint256"
        }
      ],
      "name": "ListingCancelled",
      "type": "event"
    },
    {
      "anonymous": false,
      "inputs": [
        {
          "indexed": true,
          "internalType": "uint256",
          "name": "tokenId",
          "type": "uint256"
        },
        {
          "indexed": false,
          "internalType": "uint256",
          "name": "price",
          "type": "uint256"
        }
      ],
      "name": "ListingUpdated",
      "type": "event"
    },
    {
      "anonymous": false,
      "inputs": [
        {
          "indexed": false,
          "internalType": "uint256",
          "name": "_tokenId",
          "type": "uint256"
        }
      ],
      "name": "MetadataUpdate",
      "type": "event"
    },
    {
      "anonymous": false,
      "inputs": [
        {
          "indexed": true,
          "internalType": "address",
          "name": "previousOwner",
          "type": "address"
        },
        {
          "indexed": true,
          "internalType": "address",
          "name": "newOwner",
          "type": "address"
        }
      ],
      "name": "OwnershipTransferred",
      "type": "event"
    },
    {
      "anonymous": false,
      "inputs": [
        {
          "indexed": true,
          "internalType": "address",
          "name": "from",
          "type": "address"
        },
        {
          "indexed": true,
          "internalType": "address",
          "name": "to",
          "type": "address"
        },
        {
          "indexed": true,
          "internalType": "uint256",
          "name": "tokenId",
          "type": "uint256"
        }
      ],
      "name": "Transfer",
      "type": "event"
    },
    {
      "anonymous": false,
      "inputs": [
        {
          "indexed": true,
          "internalType": "uint256",
          "name": "tokenId",
          "type": "uint256"
        },
        {
          "indexed": false,
          "internalType": "address",
          "name": "owner",
          "type": "address"
        }
      ],
      "name": "VaultItemCreated",
      "type": "event"
    },
    {
      "inputs": [
        {
          "internalType": "address",
          "name": "to",
          "type": "address"
        },
        {
          "internalType": "uint256",
          "name": "tokenId",
          "type": "uint256"
        }
      ],
      "name": "approve",
      "outputs": [],
      "stateMutability": "nonpayable",
      "type": "function"
    },
    {
      "inputs": [
        {
          "internalType": "address",
          "name": "owner",
          "type": "address"
        }
      ],
      "name": "balanceOf",
      "outputs": [
        {
          "internalType": "uint256",
          "name": "",
          "type": "uint256"
        }
      ],
      "stateMutability": "view",
      "type": "function"
    },
    {
      "inputs": [
        {
          "internalType": "uint256",
          "name": "tokenId",
          "type": "uint256"
        }
      ],
      "name": "burnAsset",
      "outputs": [],
      "stateMutability": "nonpayable",
      "type": "function"
    },
    {
      "inputs": [
        {
          "internalType": "uint256",
          "name": "tokenId",
          "type": "uint256"
        }
      ],
      "name": "buyAsset",
      "outputs": [],
      "stateMutability": "payable",
      "type": "function"
    },
    {
      "inputs": [
        {
          "internalType": "uint256",
          "name": "tokenId",
          "type": "uint256"
        }
      ],
      "name": "cancelListing",
      "outputs": [],
      "stateMutability": "nonpayable",
      "type": "function"
    },
    {
      "inputs": [
        {
          "internalType": "uint256",
          "name": "tokenId",
          "type": "uint256"
        }
      ],
      "name": "cancelTrade",
      "outputs": [],
      "stateMutability": "nonpayable",
      "type": "function"
    },
    {
      "inputs": [
        {
          "internalType": "uint256",
          "name": "tokenId",
          "type": "uint256"
        }
      ],
      "name": "confirmTrade",
      "outputs": [],
      "stateMutability": "nonpayable",
      "type": "function"
    },
    {
      "inputs": [],
      "name": "getAllListedAssets",
      "outputs": [
        {
          "components": [
            {
              "internalType": "uint256",
              "name": "id",
              "type": "uint256"
            },
            {
              "internalType": "uint256",
              "name": "tokenId",
              "type": "uint256"
            },
            {
              "internalType": "address payable",
              "name": "seller",
              "type": "address"
            },
            {
              "internalType": "address payable",
              "name": "owner",
              "type": "address"
            },
            {
              "internalType": "uint256",
              "name": "price",
              "type": "uint256"
            },
            {
              "internalType": "bool",
              "name": "isListed",
              "type": "bool"
            },
            {
              "internalType": "bool",
              "name": "isCopy",
              "type": "bool"
            },
            {
              "internalType": "string",
              "name": "encryptedCid",
              "type": "string"
            },
            {
              "internalType": "string",
              "name": "previewURI",
              "type": "string"
            },
            {
              "internalType": "string",
              "name": "name",
              "type": "string"
            },
            {
              "internalType": "string",
              "name": "description",
              "type": "string"
            },
            {
              "internalType": "bool",
              "name": "useEscrow",
              "type": "bool"
            },
            {
              "internalType": "address",
              "name": "buyer",
              "type": "address"
            },
            {
              "internalType": "bool",
              "name": "sellerConfirmed",
              "type": "bool"
            },
            {
              "internalType": "bool",
              "name": "buyerConfirmed",
              "type": "bool"
            },
            {
              "internalType": "bool",
              "name": "isEscrowActive",
              "type": "bool"
            }
          ],
          "internalType": "struct CipherVault.VaultItem[]",
          "name": "",
          "type": "tuple[]"
        }
      ],
      "stateMutability": "view",
      "type": "function"
    },
    {
      "inputs": [
        {
          "internalType": "uint256",
          "name": "tokenId",
          "type": "uint256"
        }
      ],
      "name": "getApproved",
      "outputs": [
        {
          "internalType": "address",
          "name": "",
          "type": "address"
        }
      ],
      "stateMutability": "view",
      "type": "function"
    },
    {
      "inputs": [],
      "name": "getMyAssets",
      "outputs": [
        {
          "components": [
            {
              "internalType": "uint256",
              "name": "id",
              "type": "uint256"
            },
            {
              "internalType": "uint256",
              "name": "tokenId",
              "type": "uint256"
            },
            {
              "internalType": "address payable",
              "name": "seller",
              "type": "address"
            },
            {
              "internalType": "address payable",
              "name": "owner",
              "type": "address"
            },
            {
              "internalType": "uint256",
              "name": "price",
              "type": "uint256"
            },
            {
              "internalType": "bool",
              "name": "isListed",
              "type": "bool"
            },
            {
              "internalType": "bool",
              "name": "isCopy",
              "type": "bool"
            },
            {
              "internalType": "string",
              "name": "encryptedCid",
              "type": "string"
            },
            {
              "internalType": "string",
              "name": "previewURI",
              "type": "string"
            },
            {
              "internalType": "string",
              "name": "name",
              "type": "string"
            },
            {
              "internalType": "string",
              "name": "description",
              "type": "string"
            },
            {
              "internalType": "bool",
              "name": "useEscrow",
              "type": "bool"
            },
            {
              "internalType": "address",
              "name": "buyer",
              "type": "address"
            },
            {
              "internalType": "bool",
              "name": "sellerConfirmed",
              "type": "bool"
            },
            {
              "internalType": "bool",
              "name": "buyerConfirmed",
              "type": "bool"
            },
            {
              "internalType": "bool",
              "name": "isEscrowActive",
              "type": "bool"
            }
          ],
          "internalType": "struct CipherVault.VaultItem[]",
          "name": "",
          "type": "tuple[]"
        }
      ],
      "stateMutability": "view",
      "type": "function"
    },
    {
      "inputs": [
        {
          "internalType": "address",
          "name": "owner",
          "type": "address"
        },
        {
          "internalType": "address",
          "name": "operator",
          "type": "address"
        }
      ],
      "name": "isApprovedForAll",
      "outputs": [
        {
          "internalType": "bool",
          "name": "",
          "type": "bool"
        }
      ],
      "stateMutability": "view",
      "type": "function"
    },
    {
      "inputs": [
        {
          "internalType": "uint256",
          "name": "tokenId",
          "type": "uint256"
        },
        {
          "internalType": "uint256",
          "name": "price",
          "type": "uint256"
        },
        {
          "internalType": "string",
          "name": "description",
          "type": "string"
        },
        {
          "internalType": "string",
          "name": "previewURI",
          "type": "string"
        },
        {
          "internalType": "bool",
          "name": "useEscrow",
          "type": "bool"
        }
      ],
      "name": "listAsset",
      "outputs": [],
      "stateMutability": "nonpayable",
      "type": "function"
    },
    {
      "inputs": [
        {
          "internalType": "string",
          "name": "tokenURI",
          "type": "string"
        },
        {
          "internalType": "string",
          "name": "name",
          "type": "string"
        }
      ],
      "name": "mintToVault",
      "outputs": [
        {
          "internalType": "uint256",
          "name": "",
          "type": "uint256"
        }
      ],
      "stateMutability": "nonpayable",
      "type": "function"
    },
    {
      "inputs": [],
      "name": "name",
      "outputs": [
        {
          "internalType": "string",
          "name": "",
          "type": "string"
        }
      ],
      "stateMutability": "view",
      "type": "function"
    },
    {
      "inputs": [],
      "name": "owner",
      "outputs": [
        {
          "internalType": "address",
          "name": "",
          "type": "address"
        }
      ],
      "stateMutability": "view",
      "type": "function"
    },
    {
      "inputs": [
        {
          "internalType": "uint256",
          "name": "tokenId",
          "type": "uint256"
        }
      ],
      "name": "ownerOf",
      "outputs": [
        {
          "internalType": "address",
          "name": "",
          "type": "address"
        }
      ],
      "stateMutability": "view",
      "type": "function"
    },
    {
      "inputs": [],
      "name": "renounceOwnership",
      "outputs": [],
      "stateMutability": "nonpayable",
      "type": "function"
    },
    {
      "inputs": [
        {
          "internalType": "address",
          "name": "from",
          "type": "address"
        },
        {
          "internalType": "address",
          "name": "to",
          "type": "address"
        },
        {
          "internalType": "uint256",
          "name": "tokenId",
          "type": "uint256"
        }
      ],
      "name": "safeTransferFrom",
      "outputs": [],
      "stateMutability": "nonpayable",
      "type": "function"
    },
    {
      "inputs": [
        {
          "internalType": "address",
          "name": "from",
          "type": "address"
        },
        {
          "internalType": "address",
          "name": "to",
          "type": "address"
        },
        {
          "internalType": "uint256",
          "name": "tokenId",
          "type": "uint256"
        },
        {
          "internalType": "bytes",
          "name": "data",
          "type": "bytes"
        }
      ],
      "name": "safeTransferFrom",
      "outputs": [],
      "stateMutability": "nonpayable",
      "type": "function"
    },
    {
      "inputs": [
        {
          "internalType": "address",
          "name": "to",
          "type": "address"
        },
        {
          "internalType": "string",
          "name": "name",
          "type": "string"
        },
        {
          "internalType": "string",
          "name": "encryptedCid",
          "type": "string"
        }
      ],
      "name": "sendCopy",
      "outputs": [],
      "stateMutability": "nonpayable",
      "type": "function"
    },
    {
      "inputs": [
        {
          "internalType": "address",
          "name": "operator",
          "type": "address"
        },
        {
          "internalType": "bool",
          "name": "approved",
          "type": "bool"
        }
      ],
      "name": "setApprovalForAll",
      "outputs": [],
      "stateMutability": "nonpayable",
      "type": "function"
    },
    {
      "inputs": [
        {
          "internalType": "bytes4",
          "name": "interfaceId",
          "type": "bytes4"
        }
      ],
      "name": "supportsInterface",
      "outputs": [
        {
          "internalType": "bool",
          "name": "",
          "type": "bool"
        }
      ],
      "stateMutability": "view",
      "type": "function"
    },
    {
      "inputs": [],
      "name": "symbol",
      "outputs": [
        {
          "internalType": "string",
          "name": "",
          "type": "string"
        }
      ],
      "stateMutability": "view",
      "type": "function"
    },
    {
      "inputs": [
        {
          "internalType": "uint256",
          "name": "tokenId",
          "type": "uint256"
        }
      ],
      "name": "tokenURI",
      "outputs": [
        {
          "internalType": "string",
          "name": "",
          "type": "string"
        }
      ],
      "stateMutability": "view",
      "type": "function"
    },
    {
      "inputs": [
        {
          "internalType": "uint256",
          "name": "tokenId",
          "type": "uint256"
        },
        {
          "internalType": "address",
          "name": "to",
          "type": "address"
        }
      ],
      "name": "transferAsset",
      "outputs": [],
      "stateMutability": "nonpayable",
      "type": "function"
    },
    {
      "inputs": [
        {
          "internalType": "address",
          "name": "from",
          "type": "address"
        },
        {
          "internalType": "address",
          "name": "to",
          "type": "address"
        },
        {
          "internalType": "uint256",
          "name": "tokenId",
          "type": "uint256"
        }
      ],
      "name": "transferFrom",
      "outputs": [],
      "stateMutability": "nonpayable",
      "type": "function"
    },
    {
      "inputs": [
        {
          "internalType": "address",
          "name": "newOwner",
          "type": "address"
        }
      ],
      "name": "transferOwnership",
      "outputs": [],
      "stateMutability": "nonpayable",
      "type": "function"
    },
    {
      "inputs": [
        {
          "internalType": "uint256",
          "name": "tokenId",
          "type": "uint256"
        },
        {
          "internalType": "uint256",
          "name": "newPrice",
          "type": "uint256"
        },
        {
          "internalType": "string",
          "name": "newDesc",
          "type": "string"
        },
        {
          "internalType": "bool",
          "name": "useEscrow",
          "type": "bool"
        }
      ],
      "name": "updateListing",
      "outputs": [],
      "stateMutability": "nonpayable",
      "type": "function"
    }
  ],
  "bytecode": "0x608060405234801561000f575f5ffd5b50336040518060400160405280600b81526020016a10da5c1a195c95985d5b1d60aa1b8152506040518060400160405280600381526020016210d59560ea1b815250815f908161005f9190610194565b50600161006c8282610194565b5050506001600160a01b03811661009c57604051631e4fbdf760e01b81525f600482015260240160405180910390fd5b6100a5816100ab565b5061024e565b600780546001600160a01b038381166001600160a01b0319831681179093556040519116919082907f8be0079c531659141344cd1fd0a4f28419497f9722a3daafe3b4186f6b6457e0905f90a35050565b634e487b7160e01b5f52604160045260245ffd5b600181811c9082168061012457607f821691505b60208210810361014257634e487b7160e01b5f52602260045260245ffd5b50919050565b601f82111561018f57805f5260205f20601f840160051c8101602085101561016d5750805b601f840160051c820191505b8181101561018c575f8155600101610179565b50505b505050565b81516001600160401b038111156101ad576101ad6100fc565b6101c1816101bb8454610110565b84610148565b6020601f8211600181146101f3575f83156101dc5750848201515b5f19600385901b1c1916600184901b17845561018c565b5f84815260208120601f198516915b828110156102225787850151825560209485019460019092019101610202565b508482101561023f57868401515f19600387901b60f8161c191681555b50505050600190811b01905550565b6134a68061025b5f395ff3fe6080604052600436106101ae575f3560e01c806370ef8f5b116100e7578063a22cb46511610087578063c87b56dd11610062578063c87b56dd146104ac578063e985e9c5146104cb578063f2fde38b146104ea578063fa62ee8d14610509575f5ffd5b8063a22cb4651461044f578063aa0058c21461046e578063b88d4fde1461048d575f5ffd5b80638f08d44d116100c25780638f08d44d146103de57806395d89b41146103fd5780639ec0507f14610411578063a17e9ea514610430575f5ffd5b806370ef8f5b1461038e578063715018a6146103ad5780638da5cb5b146103c1575f5ffd5b80631b4e8ec81161015257806342842e0e1161012d57806342842e0e1461030f57806347002d1d1461032e5780636352211e1461034257806370a0823114610361575f5ffd5b80631b4e8ec8146102b057806323b872dd146102d1578063305a67a8146102f0575f5ffd5b8063081812fc1161018d578063081812fc14610228578063095ea7b31461025f57806309ec6cc71461027e578063110d35b81461029d575f5ffd5b80628d9ce6146101b257806301ffc9a7146101d357806306fdde0314610207575b5f5ffd5b3480156101bd575f5ffd5b506101d16101cc366004612cef565b610528565b005b3480156101de575f5ffd5b506101f26101ed366004612d60565b6105fe565b60405190151581526020015b60405180910390f35b348015610212575f5ffd5b5061021b610628565b6040516101fe9190612da9565b348015610233575f5ffd5b50610247610242366004612dbb565b6106b7565b6040516001600160a01b0390911681526020016101fe565b34801561026a575f5ffd5b506101d1610279366004612de8565b6106de565b348015610289575f5ffd5b506101d1610298366004612dbb565b6106ed565b6101d16102ab366004612dbb565b61086d565b3480156102bb575f5ffd5b506102c4610a44565b6040516101fe9190612e10565b3480156102dc575f5ffd5b506101d16102eb366004612fc8565b610ebe565b3480156102fb575f5ffd5b506101d161030a366004612dbb565b610f47565b34801561031a575f5ffd5b506101d1610329366004612fc8565b61101d565b348015610339575f5ffd5b506102c461103c565b34801561034d575f5ffd5b5061024761035c366004612dbb565b611577565b34801561036c575f5ffd5b5061038061037b366004613002565b611581565b6040519081526020016101fe565b348015610399575f5ffd5b506101d16103a836600461301b565b6115c6565b3480156103b8575f5ffd5b506101d16118a2565b3480156103cc575f5ffd5b506007546001600160a01b0316610247565b3480156103e9575f5ffd5b506101d16103f8366004612dbb565b6118b5565b348015610408575f5ffd5b5061021b6119c9565b34801561041c575f5ffd5b506101d161042b366004612dbb565b6119d8565b34801561043b575f5ffd5b506101d161044a36600461308d565b611c94565b34801561045a575f5ffd5b506101d1610469366004613112565b611db3565b348015610479575f5ffd5b50610380610488366004613143565b611dbe565b348015610498575f5ffd5b506101d16104a73660046131a6565b612025565b3480156104b7575f5ffd5b5061021b6104c6366004612dbb565b61203d565b3480156104d6575f5ffd5b506101f26104e536600461321c565b612148565b3480156104f5575f5ffd5b506101d1610504366004613002565b612175565b348015610514575f5ffd5b506101d1610523366004613244565b6121af565b5f848152600a60205260409020600201546001600160a01b031633146105835760405162461bcd60e51b815260206004820152600b60248201526a27b7363c9039b2b63632b960a91b60448201526064015b60405180910390fd5b5f848152600a60205260409020600481018490556009016105a483826132e1565b505f848152600a6020818152604092839020909101805460ff1916841515179055905184815285917f66bcde9f7aec9b81719a4fdec54cbafbf6c834d1f2f989d9cd2134dab8d0c0de91015b60405180910390a250505050565b5f6001600160e01b03198216632483248360e11b1480610622575061062282612269565b92915050565b60605f805461063690613265565b80601f016020809104026020016040519081016040528092919081815260200182805461066290613265565b80156106ad5780601f10610684576101008083540402835291602001916106ad565b820191905f5260205f20905b81548152906001019060200180831161069057829003601f168201915b5050505050905090565b5f6106c1826122b8565b505f828152600460205260409020546001600160a01b0316610622565b6106e98282336122f0565b5050565b5f818152600a602081905260409091200154600160b81b900460ff166107455760405162461bcd60e51b815260206004820152600d60248201526c4e6f7420696e20657363726f7760981b604482015260640161057a565b5f818152600a602081905260408083209182015460049092015490516101009092046001600160a01b03169283926108fc8315029291818181858888f19350505050158015610796573d5f5f3e3d5ffd5b505f828152600a60205260409020600201546107bd9030906001600160a01b0316846122fd565b5f828152600a60208190526040918290206002810180546003830180546001600160a01b03199081166001600160a01b0384161790915516905590810180546005909201805460ff19169055610100600160c01b031990911690555182907f3f4e70140b414b2e16c7ad57afd896e466502c2a7d1b069f0f3a3a938f7df2a2906108619060208082526006908201526510d85b98d95b60d21b604082015260600190565b60405180910390a25050565b5f818152600a60205260409020600401543481146108bb5760405162461bcd60e51b815260206004820152600b60248201526a57726f6e6720707269636560a81b604482015260640161057a565b5f828152600a60208190526040909120015460ff161561095b575f828152600a60208190526040918290209081018054336101000261010062ff000160a81b031990911617600160b81b179055600501805460ff191690555182907f3f4e70140b414b2e16c7ad57afd896e466502c2a7d1b069f0f3a3a938f7df2a2906108619060208082526005908201526414dd185c9d60da1b604082015260600190565b5f828152600a60205260409020600201546001600160a01b03166109803033856122fd565b5f838152600a60205260408082206003810180546001600160a01b0319908116331790915560058201805460ff19169055600290910180549091169055516001600160a01b038316913480156108fc02929091818181858888f193505050501580156109ee573d5f5f3e3d5ffd5b5060098054905f6109fe836133af565b9091555050604080513381526020810184905284917f292a715744610be2d2c003ffa789368466ca91526353f24503687fb495dca86991015b60405180910390a2505050565b6008546060905f8060015b838111610ab9575f818152600a602052604090206005015460ff1615156001148015610a9457505f818152600a602081905260409091200154600160b81b900460ff16155b15610aa757610aa46001846133c7565b92505b80610ab1816133af565b915050610a4f565b505f826001600160401b03811115610ad357610ad3612c34565b604051908082528060200260200182016040528015610b0c57816020015b610af9612b68565b815260200190600190039081610af15790505b50905060015b848111610eb5575f818152600a602052604090206005015460ff1615156001148015610b5757505f818152600a602081905260409091200154600160b81b900460ff16155b15610ea3575f818152600a60209081526040918290208251610200810184528154815260018201549281019290925260028101546001600160a01b03908116938301939093526003810154909216606082015260048201546080820152600582015460ff808216151560a084015261010090910416151560c082015260068201805484939291839160e084019190610bee90613265565b80601f0160208091040260200160405190810160405280929190818152602001828054610c1a90613265565b8015610c655780601f10610c3c57610100808354040283529160200191610c65565b820191905f5260205f20905b815481529060010190602001808311610c4857829003601f168201915b50505050508152602001600782018054610c7e90613265565b80601f0160208091040260200160405190810160405280929190818152602001828054610caa90613265565b8015610cf55780601f10610ccc57610100808354040283529160200191610cf5565b820191905f5260205f20905b815481529060010190602001808311610cd857829003601f168201915b50505050508152602001600882018054610d0e90613265565b80601f0160208091040260200160405190810160405280929190818152602001828054610d3a90613265565b8015610d855780601f10610d5c57610100808354040283529160200191610d85565b820191905f5260205f20905b815481529060010190602001808311610d6857829003601f168201915b50505050508152602001600982018054610d9e90613265565b80601f0160208091040260200160405190810160405280929190818152602001828054610dca90613265565b8015610e155780601f10610dec57610100808354040283529160200191610e15565b820191905f5260205f20905b815481529060010190602001808311610df857829003601f168201915b5050509183525050600a919091015460ff808216151560208401526001600160a01b036101008304166040840152600160a81b8204811615156060840152600160b01b8204811615156080840152600160b81b90910416151560a0909101528451859087908110610e8857610e886133da565b6020908102919091010152610e9e6001866133c7565b945050505b80610ead816133af565b915050610b12565b50949350505050565b6001600160a01b038216610ee757604051633250574960e11b81525f600482015260240161057a565b5f610ef38383336123aa565b9050836001600160a01b0316816001600160a01b031614610f41576040516364283d7b60e01b81526001600160a01b038086166004830152602482018490528216604482015260640161057a565b50505050565b5f818152600a60205260409020600201546001600160a01b03163314610f9d5760405162461bcd60e51b815260206004820152600b60248201526a27b7363c9039b2b63632b960a91b604482015260640161057a565b610fa83033836122fd565b5f818152600a6020819052604080832060058101805460ff191690556002810180546001600160a01b031990811690915560038201805490911633179055909101805460ff60b81b191690555182917f411aee90354c51b1b04cd563fcab2617142a9d50da19232d888547c8a1b7fd8a91a250565b61103783838360405180602001604052805f815250612025565b505050565b6008546060905f8060015b838111611116575f818152600a60205260409020600301546001600160a01b031633148061108d57505f818152600a60205260409020600201546001600160a01b031633145b806110d957505f818152600a602081905260409091200154600160b81b900460ff1680156110d957505f818152600a60208190526040909120015461010090046001600160a01b031633145b80156110f157505f818152600a602052604090205415155b15611104576111016001846133c7565b92505b8061110e816133af565b915050611047565b505f826001600160401b0381111561113057611130612c34565b60405190808252806020026020018201604052801561116957816020015b611156612b68565b81526020019060019003908161114e5790505b50905060015b848111610eb5575f818152600a60205260409020600301546001600160a01b03163314806111b557505f818152600a60205260409020600201546001600160a01b031633145b8061120157505f818152600a602081905260409091200154600160b81b900460ff16801561120157505f818152600a60208190526040909120015461010090046001600160a01b031633145b801561121957505f818152600a602052604090205415155b15611565575f818152600a60209081526040918290208251610200810184528154815260018201549281019290925260028101546001600160a01b03908116938301939093526003810154909216606082015260048201546080820152600582015460ff808216151560a084015261010090910416151560c082015260068201805484939291839160e0840191906112b090613265565b80601f01602080910402602001604051908101604052809291908181526020018280546112dc90613265565b80156113275780601f106112fe57610100808354040283529160200191611327565b820191905f5260205f20905b81548152906001019060200180831161130a57829003601f168201915b5050505050815260200160078201805461134090613265565b80601f016020809104026020016040519081016040528092919081815260200182805461136c90613265565b80156113b75780601f1061138e576101008083540402835291602001916113b7565b820191905f5260205f20905b81548152906001019060200180831161139a57829003601f168201915b505050505081526020016008820180546113d090613265565b80601f01602080910402602001604051908101604052809291908181526020018280546113fc90613265565b80156114475780601f1061141e57610100808354040283529160200191611447565b820191905f5260205f20905b81548152906001019060200180831161142a57829003601f168201915b5050505050815260200160098201805461146090613265565b80601f016020809104026020016040519081016040528092919081815260200182805461148c90613265565b80156114d75780601f106114ae576101008083540402835291602001916114d7565b820191905f5260205f20905b8154815290600101906020018083116114ba57829003601f168201915b5050509183525050600a919091015460ff808216151560208401526001600160a01b036101008304166040840152600160a81b8204811615156060840152600160b01b8204811615156080840152600160b81b90910416151560a090910152845185908790811061154a5761154a6133da565b60209081029190910101526115606001866133c7565b945050505b8061156f816133af565b91505061116f565b5f610622826122b8565b5f6001600160a01b0382166115ab576040516322718ad960e21b81525f600482015260240161057a565b506001600160a01b03165f9081526003602052604090205490565b60088054905f6115d5836133af565b90915550506008546115e7848261249c565b6115f181836124fd565b6040518061020001604052808281526020018281526020015f6001600160a01b03168152602001856001600160a01b031681526020015f81526020015f1515815260200160011515815260200183815260200160405180602001604052805f81525081526020018481526020016040518060400160405280600b81526020016a53686172656420436f707960a81b81525081526020015f151581526020015f6001600160a01b031681526020015f151581526020015f151581526020015f1515815250600a5f8381526020019081526020015f205f820151815f0155602082015181600101556040820151816002015f6101000a8154816001600160a01b0302191690836001600160a01b031602179055506060820151816003015f6101000a8154816001600160a01b0302191690836001600160a01b031602179055506080820151816004015560a0820151816005015f6101000a81548160ff02191690831515021790555060c08201518160050160016101000a81548160ff02191690831515021790555060e082015181600601908161178d91906132e1565b5061010082015160078201906117a390826132e1565b5061012082015160088201906117b990826132e1565b5061014082015160098201906117cf90826132e1565b50610160820151600a9190910180546101808401516101a08501516101c08601516101e0909601516001600160a81b0319909316941515610100600160a81b031916949094176101006001600160a01b03928316021761ffff60a81b1916600160a81b9415159490940260ff60b01b191693909317600160b01b941515949094029390931760ff60b81b1916600160b81b9315159390930292909217909155604051908516815281907fa048f75d33aa35f9b0c6d049ac05301d13a5b41daf994a7401a5868b31986d3e906020016105f0565b6118aa61254c565b6118b35f612579565b565b336118bf82611577565b6001600160a01b0316146119015760405162461bcd60e51b81526020600482015260096024820152682737ba1037bbb732b960b91b604482015260640161057a565b61190a816125ca565b5f818152600a60205260408120818155600181018290556002810180546001600160a01b031990811690915560038201805490911690556004810182905560058101805461ffff19169055906119636006830182612bea565b611970600783015f612bea565b61197d600883015f612bea565b61198a600983015f612bea565b50600a0180546001600160c01b031916905560405181907f23c8e7ecf38ad1e9e1639dfb4b258fc9942ae76b580d2ba43c4a73b9291812c9905f90a250565b60606001805461063690613265565b5f818152600a602081905260409091200154600160b81b900460ff16611a305760405162461bcd60e51b815260206004820152600d60248201526c4e6f7420696e20657363726f7760981b604482015260640161057a565b5f818152600a60208190526040909120015461010090046001600160a01b03163303611a7d575f818152600a6020819052604090912001805460ff60b01b1916600160b01b179055611ac0565b5f818152600a60205260409020600201546001600160a01b03163303611ac0575f818152600a6020819052604090912001805460ff60a81b1916600160a81b1790555b5f818152600a602081905260409091200154600160b01b900460ff168015611b0057505f818152600a602081905260409091200154600160a81b900460ff165b15611c3e575f818152600a6020819052604090912060028101549101546001600160a01b039182169161010090910416611b3b3082856122fd565b5f838152600a60205260408082206004015490516001600160a01b0385169282156108fc02929190818181858888f19350505050158015611b7e573d5f5f3e3d5ffd5b505f838152600a6020819052604082206003810180546001600160a01b0386166001600160a01b031991821617909155600282018054909116905590810180546005909201805460ff19169055610100600160c01b031990911690556009805491611be8836133af565b90915550505f838152600a60209081526040918290206004015482516001600160a01b03851681529182015284917f292a715744610be2d2c003ffa789368466ca91526353f24503687fb495dca8699101610a37565b807f3f4e70140b414b2e16c7ad57afd896e466502c2a7d1b069f0f3a3a938f7df2a2604051611c8890602080825260079082015266436f6e6669726d60c81b604082015260600190565b60405180910390a25b50565b33611c9e86611577565b6001600160a01b031614611cea5760405162461bcd60e51b815260206004820152601360248201527213db9b1e481bdddb995c8818d85b881b1a5cdd606a1b604482015260640161057a565b5f858152600a6020526040902060058101805460ff19166001179055600481018590556002810180546001600160a01b03191633179055600901611d2e84826132e1565b505f858152600a60205260409020600701611d4983826132e1565b505f858152600a6020819052604090912001805460ff1916821515179055611d723330876122fd565b847fc5f070c186c1b761efa79fbedff80ad25d70c5a58fd310776cea62b265d4854585604051611da491815260200190565b60405180910390a25050505050565b6106e9338383612602565b600880545f9182611dce836133af565b9091555050600854611de0338261249c565b611dea81856124fd565b604080516102008101825282815260208082018481525f83850181815233606086019081526080860183815260a0870184815260c0880185815260e089018e81528a51808a018c52878152610100808c01919091526101208b018f90528b51808b018d528881526101408c01526101608b018890526101808b018890526101a08b018890526101c08b018890526101e08b018890528c8852600a90995299909520885181559551600187015592516002860180546001600160a01b03199081166001600160a01b0393841617909155925160038701805490941691161790915551600484015551600583018054925161ffff1990931691151561ff001916919091179115159093021790915591519091906006820190611f0a90826132e1565b506101008201516007820190611f2090826132e1565b506101208201516008820190611f3690826132e1565b506101408201516009820190611f4c90826132e1565b50610160820151600a9190910180546101808401516101a08501516101c08601516101e0909601511515600160b81b0260ff60b81b19961515600160b01b0260ff60b01b19921515600160a81b029290921661ffff60a81b196001600160a01b0390941661010002610100600160a81b0319971515979097166001600160a81b031990951694909417959095179190911691909117179290921617905560405133815281907fa048f75d33aa35f9b0c6d049ac05301d13a5b41daf994a7401a5868b31986d3e9060200160405180910390a29392505050565b612030848484610ebe565b610f4133858585856126a0565b6060612048826122b8565b505f828152600660205260408120805461206190613265565b80601f016020809104026020016040519081016040528092919081815260200182805461208d90613265565b80156120d85780601f106120af576101008083540402835291602001916120d8565b820191905f5260205f20905b8154815290600101906020018083116120bb57829003601f168201915b505050505090505f6120f460408051602081019091525f815290565b905080515f03612105575092915050565b81511561213757808260405160200161211f929190613405565b60405160208183030381529060405292505050919050565b612140846127c8565b949350505050565b6001600160a01b039182165f90815260056020908152604080832093909416825291909152205460ff1690565b61217d61254c565b6001600160a01b0381166121a657604051631e4fbdf760e01b81525f600482015260240161057a565b611c9181612579565b336121b983611577565b6001600160a01b0316146121fb5760405162461bcd60e51b81526020600482015260096024820152682737ba1037bbb732b960b91b604482015260640161057a565b6122063382846122fd565b5f828152600a602090815260409182902060030180546001600160a01b0319166001600160a01b03851690811790915582513381529182015283917fa993eb3a10693085bc7afc1de0202310fbd5992b9e51edd263b198f62f20cdae9101610861565b5f6001600160e01b031982166380ac58cd60e01b148061229957506001600160e01b03198216635b5e139f60e01b145b8061062257506301ffc9a760e01b6001600160e01b0319831614610622565b5f818152600260205260408120546001600160a01b03168061062257604051637e27328960e01b81526004810184905260240161057a565b6110378383836001612839565b6001600160a01b03821661232657604051633250574960e11b81525f600482015260240161057a565b5f61233283835f6123aa565b90506001600160a01b03811661235e57604051637e27328960e01b81526004810183905260240161057a565b836001600160a01b0316816001600160a01b031614610f41576040516364283d7b60e01b81526001600160a01b038086166004830152602482018490528216604482015260640161057a565b5f828152600260205260408120546001600160a01b03908116908316156123d6576123d681848661293d565b6001600160a01b03811615612410576123f15f855f5f612839565b6001600160a01b0381165f90815260036020526040902080545f190190555b6001600160a01b0385161561243e576001600160a01b0385165f908152600360205260409020805460010190555b5f8481526002602052604080822080546001600160a01b0319166001600160a01b0389811691821790925591518793918516917fddf252ad1be2c89b69c2b068fc378daa952ba7f163c4a11628f55a4df523b3ef91a4949350505050565b6001600160a01b0382166124c557604051633250574960e11b81525f600482015260240161057a565b5f6124d183835f6123aa565b90506001600160a01b03811615611037576040516339e3563760e11b81525f600482015260240161057a565b5f82815260066020526040902061251482826132e1565b506040518281527ff8e1a15aba9398e019f0b49df1a4fde98ee17ae345cb5f6b5e2c27f5033e8ce79060200160405180910390a15050565b6007546001600160a01b031633146118b35760405163118cdaa760e01b815233600482015260240161057a565b600780546001600160a01b038381166001600160a01b0319831681179093556040519116919082907f8be0079c531659141344cd1fd0a4f28419497f9722a3daafe3b4186f6b6457e0905f90a35050565b5f6125d65f835f6123aa565b90506001600160a01b0381166106e957604051637e27328960e01b81526004810183905260240161057a565b6001600160a01b03821661263457604051630b61174360e31b81526001600160a01b038316600482015260240161057a565b6001600160a01b038381165f81815260056020908152604080832094871680845294825291829020805460ff191686151590811790915591519182527f17307eab39ab6107e8899845ad3d59bd9653f200f220920489ca2b5937696c31910160405180910390a3505050565b6001600160a01b0383163b156127c157604051630a85bd0160e11b81526001600160a01b0384169063150b7a02906126e2908890889087908790600401613419565b6020604051808303815f875af192505050801561271c575060408051601f3d908101601f1916820190925261271991810190613455565b60015b612783573d808015612749576040519150601f19603f3d011682016040523d82523d5f602084013e61274e565b606091505b5080515f0361277b57604051633250574960e11b81526001600160a01b038516600482015260240161057a565b805160208201fd5b6001600160e01b03198116630a85bd0160e11b146127bf57604051633250574960e11b81526001600160a01b038516600482015260240161057a565b505b5050505050565b60606127d3826122b8565b505f6127e960408051602081019091525f815290565b90505f8151116128075760405180602001604052805f815250612832565b80612811846129a1565b604051602001612822929190613405565b6040516020818303038152906040525b9392505050565b808061284d57506001600160a01b03821615155b1561290e575f61285c846122b8565b90506001600160a01b038316158015906128885750826001600160a01b0316816001600160a01b031614155b801561289b57506128998184612148565b155b156128c45760405163a9fbf51f60e01b81526001600160a01b038416600482015260240161057a565b811561290c5783856001600160a01b0316826001600160a01b03167f8c5be1e5ebec7d5bd14f71427d1e84f3dd0314c0f7b2291e5b200ac8c7c3b92560405160405180910390a45b505b50505f90815260046020526040902080546001600160a01b0319166001600160a01b0392909216919091179055565b612948838383612a30565b611037576001600160a01b03831661297657604051637e27328960e01b81526004810182905260240161057a565b60405163177e802f60e01b81526001600160a01b03831660048201526024810182905260440161057a565b60605f6129ad83612a91565b60010190505f816001600160401b038111156129cb576129cb612c34565b6040519080825280601f01601f1916602001820160405280156129f5576020820181803683370190505b5090508181016020015b5f19016f181899199a1a9b1b9c1cb0b131b232b360811b600a86061a8153600a85049450846129ff57509392505050565b5f6001600160a01b038316158015906121405750826001600160a01b0316846001600160a01b03161480612a695750612a698484612148565b806121405750505f908152600460205260409020546001600160a01b03908116911614919050565b5f8072184f03e93ff9f4daa797ed6e38ed64bf6a1f0160401b8310612acf5772184f03e93ff9f4daa797ed6e38ed64bf6a1f0160401b830492506040015b6d04ee2d6d415b85acef81000000008310612afb576d04ee2d6d415b85acef8100000000830492506020015b662386f26fc100008310612b1957662386f26fc10000830492506010015b6305f5e1008310612b31576305f5e100830492506008015b6127108310612b4557612710830492506004015b60648310612b57576064830492506002015b600a83106106225760010192915050565b60408051610200810182525f8082526020820181905291810182905260608082018390526080820183905260a0820183905260c0820183905260e0820181905261010082018190526101208201819052610140820152610160810182905261018081018290526101a081018290526101c081018290526101e081019190915290565b508054612bf690613265565b5f825580601f10612c05575050565b601f0160209004905f5260205f2090810190611c9191905b80821115612c30575f8155600101612c1d565b5090565b634e487b7160e01b5f52604160045260245ffd5b5f5f6001600160401b03841115612c6157612c61612c34565b50604051601f19601f85018116603f011681018181106001600160401b0382111715612c8f57612c8f612c34565b604052838152905080828401851015612ca6575f5ffd5b838360208301375f60208583010152509392505050565b5f82601f830112612ccc575f5ffd5b61283283833560208501612c48565b80358015158114612cea575f5ffd5b919050565b5f5f5f5f60808587031215612d02575f5ffd5b843593506020850135925060408501356001600160401b03811115612d25575f5ffd5b612d3187828801612cbd565b925050612d4060608601612cdb565b905092959194509250565b6001600160e01b031981168114611c91575f5ffd5b5f60208284031215612d70575f5ffd5b813561283281612d4b565b5f81518084528060208401602086015e5f602082860101526020601f19601f83011685010191505092915050565b602081525f6128326020830184612d7b565b5f60208284031215612dcb575f5ffd5b5035919050565b80356001600160a01b0381168114612cea575f5ffd5b5f5f60408385031215612df9575f5ffd5b612e0283612dd2565b946020939093013593505050565b5f602082016020835280845180835260408501915060408160051b8601019250602086015f5b82811015612fbc57603f19878603018452815180518652602081015160208701526040810151612e7160408801826001600160a01b03169052565b506060810151612e8c60608801826001600160a01b03169052565b506080810151608087015260a0810151612eaa60a088018215159052565b5060c0810151612ebe60c088018215159052565b5060e081015161020060e0880152612eda610200880182612d7b565b9050610100820151878203610100890152612ef58282612d7b565b915050610120820151878203610120890152612f118282612d7b565b915050610140820151878203610140890152612f2d8282612d7b565b915050610160820151612f4561016089018215159052565b50610180820151612f626101808901826001600160a01b03169052565b506101a0820151612f786101a089018215159052565b506101c0820151612f8e6101c089018215159052565b506101e08201519150612fa66101e088018315159052565b9550506020938401939190910190600101612e36565b50929695505050505050565b5f5f5f60608486031215612fda575f5ffd5b612fe384612dd2565b9250612ff160208501612dd2565b929592945050506040919091013590565b5f60208284031215613012575f5ffd5b61283282612dd2565b5f5f5f6060848603121561302d575f5ffd5b61303684612dd2565b925060208401356001600160401b03811115613050575f5ffd5b61305c86828701612cbd565b92505060408401356001600160401b03811115613077575f5ffd5b61308386828701612cbd565b9150509250925092565b5f5f5f5f5f60a086880312156130a1575f5ffd5b853594506020860135935060408601356001600160401b038111156130c4575f5ffd5b6130d088828901612cbd565b93505060608601356001600160401b038111156130eb575f5ffd5b6130f788828901612cbd565b92505061310660808701612cdb565b90509295509295909350565b5f5f60408385031215613123575f5ffd5b61312c83612dd2565b915061313a60208401612cdb565b90509250929050565b5f5f60408385031215613154575f5ffd5b82356001600160401b03811115613169575f5ffd5b61317585828601612cbd565b92505060208301356001600160401b03811115613190575f5ffd5b61319c85828601612cbd565b9150509250929050565b5f5f5f5f608085870312156131b9575f5ffd5b6131c285612dd2565b93506131d060208601612dd2565b92506040850135915060608501356001600160401b038111156131f1575f5ffd5b8501601f81018713613201575f5ffd5b61321087823560208401612c48565b91505092959194509250565b5f5f6040838503121561322d575f5ffd5b61323683612dd2565b915061313a60208401612dd2565b5f5f60408385031215613255575f5ffd5b8235915061313a60208401612dd2565b600181811c9082168061327957607f821691505b60208210810361329757634e487b7160e01b5f52602260045260245ffd5b50919050565b601f82111561103757805f5260205f20601f840160051c810160208510156132c25750805b601f840160051c820191505b818110156127c1575f81556001016132ce565b81516001600160401b038111156132fa576132fa612c34565b61330e816133088454613265565b8461329d565b6020601f821160018114613340575f83156133295750848201515b5f19600385901b1c1916600184901b1784556127c1565b5f84815260208120601f198516915b8281101561336f578785015182556020948501946001909201910161334f565b508482101561338c57868401515f19600387901b60f8161c191681555b50505050600190811b01905550565b634e487b7160e01b5f52601160045260245ffd5b5f600182016133c0576133c061339b565b5060010190565b808201808211156106225761062261339b565b634e487b7160e01b5f52603260045260245ffd5b5f81518060208401855e5f93019283525090919050565b5f61214061341383866133ee565b846133ee565b6001600160a01b03858116825284166020820152604081018390526080606082018190525f9061344b90830184612d7b565b9695505050505050565b5f60208284031215613465575f5ffd5b815161283281612d4b56fea26469706673582212204e757a9838f24d3882edb7e5c9598335f4a6acdcfe6b3fbd26b2750e6405e29b64736f6c634300081c0033",
  "linkReferences": {},
  "deployedLinkReferences": {},
  "immutableReferences": {},
  "inputSourceName": "project/contracts/CipherVault.sol",
  "buildInfoId": "solc-0_8_28-e918dcb7407dfbca1cf6346984b97a5f7811ec77"
}